:020000040800F2
:1000000000000220B9020008BF020008C302000875
:1000100035030008390300088103000800000000D0
:10002000000000000000000000000000C9030008FC
:10003000CD03000800000000D1030008D50300082C
:10004000E5030008E5030008E5030008E5030008F0
:10005000E5030008E5030008E5030008E5030008E0
:10006000E5030008E5030008E5030008E5030008D0
:10007000E5030008E5030008E5030008E5030008C0
:10008000E5030008E5030008E5030008E5030008B0
:10009000E5030008E5030008E5030008E5030008A0
:1000A000E5030008E5030008E5030008E503000890
:1000B000E5030008E5030008E5030008E503000880
:1000C000E5030008E5030008E5030008E503000870
:1000D000E5030008E5030008E5030008E503000860
:1000E000E5030008E5030008E5030008E503000850
:1000F000E5030008E5030008E5030008E503000840
:10010000E5030008E5030008E5030008E50300082F
:10011000E5030008E5030008E5030008E50300081F
:10012000E5030008E5030008E5030008E50300080F
:10013000E5030008E5030008E5030008E5030008FF
:10014000E5030008E5030008E5030008E5030008EF
:10015000E5030008E5030008E5030008E5030008DF
:10016000E5030008E5030008E5030008E5030008CF
:10017000E5030008E5030008E503000800000000AF
:10018000E5030008E503000800B583B000F018FFA0
:10019000384B394A1360394A1360394906E052F83E
:1001A000041B43F8041B9842F9D86146354B994229
:1001B00005D20A684B6801F10C0C8868F3E72E4BF6
:1001C0001A68314B9A4200D0FEE72C4B1A682F4B2D
:1001D0009A42F9D1274B2E4A13602E4A13602E4AB9
:1001E00000E002462D4B9A4209D2104650F8083BD7
:1001F00051689942F5D9002243F8042BF9E7244BC2
:100200001B6813B9234B1B6803B1FEE700F08CFF9A
:10021000694601A800F0F2FD214C224BE41AA4101B
:10022000002504E01F4B53F8253098470135AC42B8
:10023000F8DC1D4C1D4BE41AA410002504E01B4BF8
:1002400053F8253098470135AC42F8DC0099019805
:1002500000F07CFF0546164C164BE41AA41004E08F
:10026000013C144B53F824309847002CF8DC284606
:1002700000F0A0FDBABADECA000000207C00002019
:10028000E8030008000400087856341232547698C7
:100290008000002020010020000400081004000855
:1002A00010040008100400081004000810040008DE
:1002B000100400081004000808B5FFF765FF00BE31
:1002C000FEE71EF0040F0CBFEFF30880EFF3098088
:1002D0007146414A10472DE9F04182B004460D466F
:1002E000124B5F6BD3F838809E6A1B6B13F0020FC2
:1002F00003D00E4BDB6A002B0BDB0D4800F0BCFD7E
:10030000009543463A463146204600F0CFFD00BEF8
:10031000FEE74BF6AB6100F043FE0028EDD0034B47
:100320004FF00042DA6202B0BDE8F08100ED00E07B
:10033000D820000800BEFEE71EF0040F0CBFEFF34C
:100340000880EFF309807146244A10472DE9F041F7
:1003500082B004460D46084B5F6BD3F838809E6A26
:10036000064800F089FD009543463A46314620464E
:1003700000F09CFD00BEFEE700ED00E0E820000874
:100380001EF0040F0CBFEFF30880EFF309807146F5
:10039000134A10472DE9F04182B004460D46084B40
:1003A0005F6BD3F838809E6A064800F065FD0095C3
:1003B00043463A463146204600F078FD00BEFEE74F
:1003C00000ED00E0F420000800BEFEE700BEFEE7FE
:1003D00000BEFEE770470000D70200084D0300088A
:0803E0009503000800BEFEE7D2
:1003E8007C21000800000020800000207C210008FB
:1003F80000000010000000108000002024010020F0
:080408000000001000000010CC
:1004100010B504460E4B18784FF47A73B3FBF0F323
:100420000C4A1068B0FBF3F000F09CF868B90F2C90
:1004300001D901200AE0002221464FF0FF3000F0F0
:100440004BF8054B1C60002000E0012010BD00BFF0
:1004500004000020140000200800002008B50B4B09
:100460001A6842F400721A601A6842F480621A60D4
:100470001A6842F480721A60032000F00FF80F200F
:10048000FFF7C6FF00F008FF002008BD003C024057
:10049000014B1868704700BF8400002010B5044667
:1004A000C31E042B0FD80A4AD36823F4E0631B044D
:1004B0001B0C240204F4E064234343F0BF6343F4C1
:1004C0000033D36010BD9221024800F035FEEAE708
:1004D00000ED00E0581F000870B505460C461646B2
:1004E0000F2A25D80F2C28D81B4BDB68C3F3022317
:1004F000C3F10701042928BF04211A1D062A21D9A6
:10050000033B4FF0FF3202FA01F124EA01049C4060
:1005100002FA03F326EA03063443002D14DB240118
:10052000E4B205F1604505F5614585F8004370BD0D
:10053000AA210A4800F000FED4E7AB21074800F0EA
:10054000FBFDD1E70023DCE705F00F052401E4B251
:10055000034B5C55EBE700BF00ED00E0581F0008BF
:1005600014ED00E00138B0F1807F0BD24FF0E023B2
:100570005861054AF02182F8231000209861072273
:100580001A6170470120704700ED00E010B5044685
:10059000042800D040B9042C0CD04FF0E02213699D
:1005A00023F00403136110BD40F2C911054800F0A7
:1005B000C3FDF0E74FF0E022136943F00403136139
:1005C000F1E700BF581F0008002800F0588270B5FE
:1005D00082B0044603680F2B39D8236813F0010F4B
:1005E0004DD063682BB1B3F5803F02D0B3F5A02F97
:1005F00032D1804B9B6803F00C03042B36D07D4B2B
:100600009B6803F00C03082B2BD06368B3F5803F85
:100610005FD0B3F5A02F62D0764B1A6822F48032F7
:100620001A601A6822F480221A606368002B60D076
:10063000FFF72EFF05466F4B1B6813F4003F1ED1DA
:10064000FFF726FF401B6428F5D903201EE2E821AE
:10065000694800F071FDC0E7ED21674800F06CFDCE
:10066000C7E7644B5B6813F4800FCED0614B1B6807
:1006700013F4003F03D06368002B00F0028223686C
:1006800013F0020F66D0E368012B41D823691F2BBA
:1006900044D8584B9B6813F00C0F4AD0554B9B68BD
:1006A00003F00C03082B3FD0E368002B77D0534BAB
:1006B00001221A60FFF7ECFE05464E4B1B6813F053
:1006C000020F63D1FFF7E4FE401B0228F5D9032097
:1006D000DCE1484A136843F480331360A5E7454BD7
:1006E0001A6842F480221A601A6842F480321A6052
:1006F0009BE7FFF7CDFE05463E4B1B6813F4003F1A
:10070000BDD0FFF7C5FE401B6428F5D90320BDE12D
:1007100040F21F11384800F00FFDB7E74FF4907119
:10072000354800F009FDB4E7324B5B6813F4800FE5
:10073000BAD1304B1B6813F0020F03D0E368012BD2
:1007400040F0A1812B4A136823F0F803216943EAA2
:10075000C1031360236813F0080F51D06369012BA4
:100760002FD863699BB3254B0122C3F8802EFFF776
:100770008FFE05461F4B5B6F13F0020F40D1FFF752
:1007800087FE401B0228F5D903207FE1194A136830
:1007900023F0F803216943EAC1031360DAE7174B3A
:1007A00000221A60FFF774FE0546124B1B6813F017
:1007B000020FCFD0FFF76CFE401B0228F5D90320B3
:1007C00064E14FF4B0710C4800F0B6FCC9E70B4B84
:1007D0000022C3F8802EFFF75BFE0546054B5B6FDA
:1007E00013F0020F0CD0FFF753FE401B0228F5D97F
:1007F00003204BE1003802408C1F000800004742F4
:10080000236813F0040F7CD0A368012B01D9052BBA
:1008100038D1A34B1B6C13F0805F39D100230193B7
:100820009F4B1A6C42F080521A641B6C03F0805389
:100830000193019B01259B4B1B6813F4807F29D0FA
:10084000A368012B3AD0052B3ED0954B1A6F22F0AE
:1008500001021A671A6F22F004021A67A368002BBC
:100860003CD0FFF715FE06468D4B1B6F13F0020FB1
:1008700045D1FFF70DFE801B41F288339842F3D932
:10088000032003E14FF4C671874800F055FCC0E730
:100890000025D0E7834A136843F480731360FFF7A1
:1008A000F7FD06467F4B1B6813F4807FC8D1FFF726
:1008B000EFFD801B0228F5D90320E7E0784A136F8B
:1008C00043F001031367C9E7754B1A6F42F0040246
:1008D0001A671A6F42F001021A67BFE7FFF7D8FDE7
:1008E00006466F4B1B6F13F0020F08D0FFF7D0FDC9
:1008F000801B41F288339842F3D90320C6E0002DD3
:100900003BD1A369022B3ED8A369002B00F0BD8028
:10091000634A926802F00C02082A00F09080022BD1
:1009200079D1E36913B1B3F5800F32D1236A3F2B3C
:1009300035D8636A323BB3F5BF7F36D8A36A022B42
:1009400005D0042B03D0062B01D0082B33D1E36A4A
:10095000023B0D2B35D8554B00221A66FFF798FD48
:1009600005464F4B1B6813F0007F30D0FFF790FD1A
:10097000401B0228F5D9032088E0494A136C23F074
:1009800080531364BDE740F2CF11474800F0D4FB19
:10099000BAE74FF4EC71444800F0CEFBC6E740F2F2
:1009A000D911414800F0C8FBC3E74FF4ED713E4850
:1009B00000F0C2FBC2E740F2DB113B4800F0BCFB99
:1009C000C5E74FF4EE71384800F0B6FBC3E7E369C2
:1009D000226A1343626A43EA8213A26A5208013A06
:1009E00043EA0243E26A43EA02632D4A53602F4B13
:1009F00001221A66FFF74CFD0446294B1B6813F0D1
:100A0000007F06D1FFF744FD001B0228F5D9032023
:100A10003CE000203AE0254B00221A66FFF738FD43
:100A200004461F4B1B6813F0007F06D0FFF730FD14
:100A3000001B0228F5D9032028E0002026E0012B26
:100A400026D0174B5B6803F48001E269914221D103
:100A500003F03F02216A8A421ED1616A47F6C072E2
:100A60001A408A421AD103F44032A16A8A421FD145
:100A700003F07063E26A93421CD1002006E001207B
:100A80007047012002E0012000E0002002B070BDAC
:100A90000120FBE70120F9E70120F7E70120F5E756
:100AA00000380240007000408C1F000800004742E0
:100AB0000120EBE70120E9E708B5314B9B6803F023
:100AC0000C03042B57D0082B57D12D4B5A6802F03A
:100AD0003F025B6813F4800F2AD0294B5968C1F399
:100AE000881C4FEA4C11B1EB0C006EEB0E0E4FEA76
:100AF0008E1343EA90638101091A63EB0E03DB0056
:100B000043EA5173C90011EB0C0C43F10003590285
:100B100000234FEA4C2041EADC5100F0BFFB184BA8
:100B20005B68C3F3014301335B00B0FBF3F025E0E6
:100B3000134B5968C1F3881C4FEA4C11B1EB0C0000
:100B40006EEB0E0E4FEA8E1343EA90638101091A91
:100B500063EB0E03DB0043EA5173C90011EB0C0C8D
:100B600043F10003990200234FEA8C2041EA9C5193
:100B700000F094FBD3E7034800E0034808BD00BF42
:100B80000038024000127A000024F400002800F02F
:100B9000F78070B50D4604460368013B0E2B6BD8F9
:100BA000072D6FD87A4B1B6803F00F03AB4208D2B6
:100BB000EBB2774A1370136803F00F03AB4240F0B7
:100BC000E180236813F0020F29D013F0040F04D042
:100BD000704A936843F4E0539360236813F0080F5E
:100BE00004D06C4A936843F460439360A3687BB17C
:100BF000802B0DD0902B0BD0A02B09D0B02B07D081
:100C0000C02B05D0D02B03D0E02B01D0F02B3FD14F
:100C1000604A936823F0F003A1680B439360236854
:100C200013F0010F4ED06368032B37D86368012B94
:100C30003AD09A1E012A3ED9564A126812F0020F83
:100C400000F0A28053498A6822F0030213438B60AC
:100C5000FFF71EFC06464F4B9B6803F00C036268CF
:100C6000B3EB820F2ED0FFF713FC801B41F28833C9
:100C70009842F0D9032076E040F25121464800F036
:100C80005BFA8DE740F25221434800F055FA89E7BC
:100C900040F27521404800F04FFAB9E74FF41F7158
:100CA0003D4800F049FAC1E73A4A126812F4003FA1
:100CB000C8D1012057E0374A126812F0007FC1D135
:100CC000012050E0324B1B6803F00F03AB4207D901
:100CD000EAB22F4B1A701B6803F00F03AB4255D1D9
:100CE000236813F0040F14D0E3685BB1B3F5805FA1
:100CF00008D0B3F5A05F05D0B3F5C05F02D0B3F55F
:100D0000E05F31D1234A936823F4E053E1680B4359
:100D10009360236813F0080F15D023695BB1B3F516
:100D2000805F08D0B3F5A05F05D0B3F5C05F02D0F7
:100D3000B3F5E05F1ED1174A936823F4604321693D
:100D400043EAC1039360FFF7B7FE124B9B68C3F3FE
:100D50000313124AD35CD840114B1860114B18682A
:100D6000FFF756FB002070BD40F2BA210A4800F0A0
:100D7000E3F9C7E740F2C121074800F0DDF9DAE7FF
:100D8000012070470120EEE70120ECE70120EAE7AF
:100D9000003C0240003802408C1F0008042100087B
:100DA0001400002008000020014B1868704700BFA5
:100DB00014000020FEE7000008B503460C4A126844
:100DC0005AB10B4A1068033323F003030344094A62
:100DD000934206D8064A136008BD054A06491160C9
:100DE000EFE700F0DDFB0C2303604FF0FF30F3E78B
:100DF0008800002000FC0120240100200123036062
:100E0000014B0B60704700BF0C0000202DE9F04340
:100E100085B004460F4643563BBB04252846214671
:100E2000ABBE0446384605B0BDE8F08314F901CBEB
:100E300003F110026A4402F810CC0133AB42F5D33F
:100E400010336B44002203F8102C4FF00408E946DD
:100E500040464946ABBE8046761B002EE2D0354662
:100E6000102E28BF10250023E8E70E46F5E708B549
:100E7000FFF7CCFF08BD00000FB400B583B004AB92
:100E800053F8042B01938021074800F0BBFB002896
:100E900004DC03B05DF804EB04B07047014602487F
:100EA000FFF7E5FFF5E700BF94000020F8B5044622
:100EB0000D4617461E462748FFF7DEFF21682648E5
:100EC000FFF7DAFF61682548FFF7D6FFA1682448DD
:100ED000FFF7D2FFE1682348FFF7CEFF21692248E0
:100EE000FFF7CAFF61692148FFF7C6FFA1692048E3
:100EF000FFF7C2FFE1691F48FFF7BEFF1E48FFF77B
:100F0000BBFF29461D48FFF7B7FF1D4CE16A1D488E
:100F1000FFF7B2FF216B1C48FFF7AEFFE16B1B48E8
:100F2000FFF7AAFF15F0800F0AD115F4004F0CD17E
:100F30001748FFF7A1FF06991648FFF79DFFF8BD78
:100F400039461548FFF798FFEFE731461348FFF79A
:100F500093FFEDE7BC1F0008CC1F0008DC1F000852
:100F6000EC1F0008FC1F00080C2000081C200008D3
:100F70002C2000083C2000084C20000858200008C5
:100F800000ED00E0682000087820000888200008B4
:100F9000B8200008C020000898200008A8200008F9
:100FA00083691A888A4201D0002070470268033A98
:100FB000012A01D900207047023383610120704764
:100FC00008B500F009F8024A024B9A6008BD00BF5C
:100FD0000000000800ED00E0024B4FF000629A6054
:100FE000704700BF00ED00E0224B9B6803F00C034C
:100FF000042B14D0082B16D01BB11F4B1F4A1A60AC
:1010000002E01D4B1D4A1A601A4B9B68C3F3031381
:101010001B4AD15C184A1368CB4013607047164BCB
:10102000184A1A60F0E7134B59685A6802F03F02F9
:1010300011F4800F13D0134BB3FBF2F30D4A526837
:10104000C2F3881202FB03F30A4A5268C2F3014258
:1010500001325200B3FBF2F3074A1360D4E7074BA7
:10106000B3FBF2F3034A5268C2F3881202FB03F3A4
:10107000EAE700BF00380240140000200024F4001A
:101080000421000800127A0030B595B000240194C4
:10109000224B1A6C42F080521A641B6C03F080538E
:1010A0000193019B02941E4B1A6842F480421A601D
:1010B0001B6803F480430293029B012308934FF4BF
:1010C000803309934FF480030F93082310934FF458
:1010D000A873119302251295072313930E9508A860
:1010E000FFF772FA0F230393049505944FF4A0536E
:1010F00006934FF480530793052103A8FFF746FD9D
:10110000FFF752FE074BA3FB00308009FFF72AFAD6
:101110000420FFF73BFA15B030BD00BF0038024095
:1011200000700040D34D621008B5FFF797F9FFF744
:10113000ABFFFFF759FF08BD08B50A460146024854
:10114000FFF79AFEFEE700BF142100084F4AD2F8CD
:10115000303843F00903C2F830384D4B0022C3F851
:10116000002C1A60196941F00801196119681960A9
:10117000D3F8001C41F08051C3F8001CD3F8001CC8
:1011800041F08061C3F8001CD3F8001C41F080716D
:10119000C3F8001CD3F8001C41F08041C3F8001CC8
:1011A000C3F8142C00E00132394B196911F0010128
:1011B000F9D147F230539A42F6DD354AD2F8143C61
:1011C00043F48043C2F8143C56E00133314A934261
:1011D000FBDD2F4BD3F8142C22F40042C3F8142C5F
:1011E000D3F8142C42F48052C3F8142C0B4600E0C0
:1011F0000133284A9342FBDD254BD3F8142C22F40B
:101200008052C3F8142CD3F8142C42F40052C3F8C3
:10121000142C0B4600E001331E4A9342FBDD1C4BAD
:10122000D3F8142C22F40052C3F8142CD3F8142C45
:1012300042F48052C3F8142C0B4600E00133154AE7
:101240009342FBDD124BD3F8142C22F48052C3F8E6
:10125000142CD3F8142C42F40042C3F8142C0B467F
:1012600000E001330B4A9342FBDD094AD2F8143CFB
:1012700023F40043C2F8143C054AD2F8143C43F46A
:101280000043C2F8143C0B46A0E700BF0030024008
:10129000000002407FF0FA027047000053B94AB9DB
:1012A000002908BF00281CBF4FF0FF314FF0FF306E
:1012B00000F074B9ADF1080C6DE904CE00F006F849
:1012C000DDF804E0DDE9022304B070472DE9F047C2
:1012D000089E0D4604468846002B4DD18A4294460E
:1012E00068D9B2FA82F252B101FA02F3C2F12001D6
:1012F00020FA01F10CFA02FC41EA030894404FEA9B
:101300001C45210CB8FBF5FE1FFA8CF705FB1E836C
:1013100041EA03430EFB07F199420BD91CEB03038F
:101320000EF1FF3080F01E81994240F21B81AEF138
:10133000020E63445B1AA4B2B3FBF5F005FB103355
:1013400044EA034400FB07F7A7420AD91CEB040454
:1013500000F1FF3380F00881A74240F20581644428
:101360000238E41B40EA0E4000211EB1D4400023A5
:10137000C6E90043BDE8F0878B4208D9002E00F093
:10138000EE800021C6E900050846BDE8F087B3FA03
:1013900083F100294AD1AB4202D3824200F2F980A4
:1013A000841A65EB030301209846002EE2D0C6E9BB
:1013B0000048DFE702B9FFDEB2FA82F2002A40F00D
:1013C0009180A1EB0C054FEA1C471FFA8CFE01210E
:1013D000B5FBF7F307FB1350250C45EA00450EFB60
:1013E00003F0A84208D91CEB050503F1FF3802D22F
:1013F000A84200F2CB8043462D1AA4B2B5FBF7F009
:1014000007FB105544EA05440EFB00FEA64508D92B
:101410001CEB040400F1FF3502D2A64500F2BB80AC
:101420002846A4EB0E0440EA03409EE7C1F12007E2
:101430008B4022FA07FC4CEA030C20FA07F405FA69
:1014400001F31C43FD404FEA1C4900FA01F3B5FBD0
:10145000F9F8200C1FFA8CFE09FB185540EA0545E7
:1014600008FB0EF0A84202FA01F20BD91CEB0505AD
:1014700008F1FF3A80F08880A84240F28580A8F108
:10148000020865442D1AA4B2B5FBF9F009FB10550A
:1014900044EA054500FB0EFEAE4508D91CEB0505E8
:1014A00000F1FF346CD2AE456AD90238654440EA97
:1014B0000840A0FB0294A5EB0E05A542C846A6462F
:1014C00056D353D05EB1B3EB080265EB0E0505FAB7
:1014D00007F722FA01F3CD401F43C6E9007500214A
:1014E000BDE8F087C2F1200320FA03F10CFA02FCF8
:1014F00025FA03F395400D434FEA1C471FFA8CFE73
:10150000B3FBF7F107FB11302B0C43EA004301FB5F
:101510000EF0984204FA02F408D91CEB030301F11F
:10152000FF382FD298422DD9023963441B1AADB22D
:10153000B3FBF7F007FB103345EA034500FB0EF35E
:10154000AB4208D91CEB050500F1FF3816D2AB42BF
:1015500014D902386544ED1A40EA014138E73146B2
:10156000304607E78646E5E61846FAE64B45A9D237
:10157000B9EB020864EB0C0E0138A3E74046EAE73A
:10158000204694E74146D1E7D0467BE7023B6544DD
:1015900032E7084609E76444023842E7704700BF73
:1015A000014B1868704700BF1800002030B5144682
:1015B000002C9BB005461A4605DA8B2303604FF0DA
:1015C000FF301BB030BD4FF40273ADF80C3014BFC8
:1015D00004F1FF332346029305934FF6FF73009106
:1015E0000491ADF80E3069461E9B00F075F8431C5F
:1015F000BCBF8B232B60002CE3D0009B00221A7011
:10160000DFE7000007B5009313460A46014603488A
:101610000068FFF7CBFF03B05DF804FB1800002063
:101620002DE9F0478E689E4282460C4690461F4642
:1016300038D88A8912F4906F32D025680969A5EBF1
:101640000109656905EB450505EBD57501334B448B
:101650006D109D4238BF1D46530531D5294600F017
:10166000B1FB064650B90C23CAF80030A38943F0F9
:101670004003A3814FF0FF30BDE8F08721694A465F
:1016800000F00EFBA38923F4906343F08003A38151
:10169000266165614E44A5EB09052660A5603E46BE
:1016A000BE4200D93E4620683246414600F006FB65
:1016B000A3689B1BA3602368334423600020DBE7FF
:1016C0002A4600F0F3FB06460028E1D12169504686
:1016D00000F00EFBC7E700002DE9F04F98468B891C
:1016E0001B069DB007460D4614460ED50B6963B91F
:1016F000402100F067FB2860286120B90C233B6083
:101700004FF0FF30D1E040236B6100230993202389
:101710008DF82930CDF80C803023DFF8A8818DF8C2
:101720002A304FF0010923469A4613F8012B0AB1DB
:10173000252AF9D1BAEB040B0BD05B462246294689
:101740003846FFF76DFF013000F0AA80099A5A442D
:1017500009929AF80030002B00F0A28000234FF08D
:10176000FF32CDE905230AF1010A049307938DF8AE
:1017700053301A935446052214F8011B514800F0C7
:101780003FFA049AD8B9D00644BF20238DF85330CD
:10179000110744BF2B238DF853309AF800302A2BC1
:1017A00015D0079A544600204FF00A0C214611F834
:1017B000013B303B092B4ED9B0B1079214E0A0EBAE
:1017C000080309FA03F313430493A246D2E7039BE9
:1017D000191D1B680391002BBBBF5B4242F0020244
:1017E00007930793B8BF049223782E2B0CD163780C
:1017F0002A2B35D1039B1A1D1B680392002BB8BFFF
:101800004FF0FF3302340593DFF8BCA021780322A8
:10181000504600F0F5F940B14023A0EB0A0003FA6E
:1018200000F0049B03430134049314F8011B274880
:101830008DF82810062200F0E3F9002838D0244B58
:101840001BBB039B073323F0070308330393099B58
:101850003344099367E70CFB02320C460120A5E7ED
:1018600000230134059319464FF00A0C204610F866
:10187000012B303A092A03D9002BC5D00591C3E7C3
:101880000CFB012104460123F0E703AB00932A4639
:10189000104B04A93846AFF30080421C0646D6D14F
:1018A000AB895B063FF52CAF09981DB0BDE8F08F02
:1018B00003AB00932A46074B04A9384600F07AF898
:1018C000EBE700BF41210008472100084B21000839
:1018D00000000000211600082DE9F0471646994641
:1018E0008A680B69DDF820809342B8BF13463360E5
:1018F00091F8432007460C460AB101333360236850
:10190000990642BF336802333360256815F0060537
:1019100006D104F1190AE36832689B1AAB4226DC4F
:1019200094F84320131E226818BF012392062BD47B
:1019300004F1430249463846C04701301ED02368AF
:10194000E568326803F00603042B08BFAD1AA368EC
:1019500022690CBF25EAE57500259342C4BF9B1A96
:10196000ED1800261A34B5421AD1002008E00123F0
:10197000524649463846C047013003D14FF0FF3048
:10198000BDE8F0870135C6E7E1185A1C302081F820
:101990004300224494F8451082F843100233C7E70D
:1019A0000123224649463846C0470130E6D0013679
:1019B000D9E700002DE9FF470F7E0C9D782F914657
:1019C00080460C469A4601F1430207D8622F0AD896
:1019D000002F00F0D880582F00F0A38004F14205BA
:1019E00084F842703AE0A7F16303152BF6D801A101
:1019F00051F823F04D1A0008611A0008DD1900089B
:101A0000DD190008DD190008DD190008611A000859
:101A1000DD190008DD190008DD190008DD190008CE
:101A20006D1B0008911A00084F1B0008DD19000803
:101A3000DD1900088F1B0008DD190008911A000845
:101A4000DD190008DD190008571B00082B681A1D56
:101A50001B682A6004F1420584F842300123A3E0A8
:101A600020682968060601F104030AD50E682B6078
:101A7000002E03DA2D23764284F843305E480A2391
:101A800019E00E682B6010F0400F18BF36B2EFE778
:101A90002B682068191D2960010601D51E6802E027
:101AA0004606FBD51E8854486F2F0CBF08230A2317
:101AB000002184F843106568A560002DA2BF21684D
:101AC00021F0040121600EB9002D4DD01546B6FB62
:101AD000F3F103FB1167C75D05F8017D3746BB4293
:101AE0000E46F4D9082B0BD12368DE0708D52369ED
:101AF00061689942DEBF302305F8013C05F1FF35EE
:101B0000521B2261CDF800A04B4603AA2146404655
:101B1000FFF7E2FE01304CD14FF0FF3004B0BDE8DA
:101B2000F087354881F845702968236851F8046BBF
:101B300029601D0614D5DF0744BF43F0200323604E
:101B40001EB9236823F0200323601023B0E7236825
:101B500043F0200323607823284884F84530E3E7E6
:101B6000590648BFB6B2E6E71546BBE72B682668BC
:101B70006169181D286035061B6801D5196002E0EF
:101B80007006FBD51980002323611546BAE72B6840
:101B90001A1D2A601D6862680021284600F030F88E
:101BA00008B1401B606063682361002384F8433000
:101BB000A8E723692A4649464046D0470130ABD0C2
:101BC00023689B0713D4E068039B9842B8BF18466C
:101BD000A4E70123324649464046D04701309BD016
:101BE0000135E36803995B1AAB42F2DCEBE70025B1
:101BF00004F11906F5E700BF52210008632100082F
:101C000001F0FF01102A2BDB10F0070F08D010F8AD
:101C1000013B013A8B422DD010F0070F42B3F6D1B1
:101C2000F0B441EA012141EA014122F007047FF0CA
:101C300000070023F0E80256083C85EA010586EA21
:101C4000010685FA47F5A3FA87F586FA47F6A5FA5D
:101C500087F68EB9EED1F0BC01F0FF0102F0070269
:101C600032B110F8013B013A83EA010313B1F8D114
:101C70000020704701387047002D06BF35460338F5
:101C8000073815F0010F07D1013015F4807F02BF2E
:101C9000013015F4C03F0130F0BC0138704700BF7F
:101CA0000A44914200F1FF3300D1704710B511F89A
:101CB000014B03F8014F9142F9D110BD884210B594
:101CC00001EB020402D98442234607D8431EA142F5
:101CD00008D011F8012B03F8012FF8E70244014660
:101CE0008A4200D110BD13F8014D02F8014DF7E70B
:101CF00038B50546002941D051F8043C0C1F002B93
:101D0000B8BFE41800F012F91D4A136833B96360D4
:101D100014602846BDE8384000F00EB9A34208D947
:101D2000206821188B4201BF19685B68091821607F
:101D3000EDE71A465B680BB1A342FAD91168501857
:101D4000A0420BD120680144501883421160E0D1B9
:101D500018685B68536001441160DAE702D90C230C
:101D60002B60D6E7206821188B4204BF19685B6896
:101D7000636004BF091821605460CAE738BD00BF22
:101D80001401002070B50E4E0C463168054611B99D
:101D900000F0BCF830602146284600F0B7F8431C3C
:101DA0000AD0C41C24F00304A04207D0211A2846FC
:101DB00000F0ACF8013001D14FF0FF34204670BD87
:101DC000180100202DE9F041CD1C25F00305083550
:101DD0000C2D38BF0C25002D074601DBA94205D983
:101DE0000C233B6000263046BDE8F0812E4E00F00B
:101DF0009DF833681C4634BB29463846FFF7C2FFBE
:101E0000431C04464DD134682646002E40D1236839
:101E10003146384604EB030800F078F880453AD1A3
:101E2000216803356D1A25F0030508350C2D38BFE0
:101E30000C2529463846FFF7A5FF01302BD0236833
:101E40002B4423600EE02268521B1ED40B2A16D9A5
:101E50006119A342256018BF5960636808BF3160EB
:101E600062514B60384604F10B0600F065F826F02D
:101E70000706231DF21AB6D09B1BA350B3E7626876
:101E8000A3420CBF32605A60ECE723466468B2E7B5
:101E900034467668B9E70C233B60384600F04CF8CE
:101EA000A1E72560DEE700BF140100202DE9F04125
:101EB000804614460E4621B9BDE8F0411146FFF7B1
:101EC00081BF2AB9FFF714FF25462846BDE8F081F7
:101ED00000F038F88442074602D8B4EB500F12D80D
:101EE00021464046FFF76EFF05460028EDD0BC4274
:101EF0002246314628BF3A46FFF7D2FE31464046D9
:101F0000FFF7F6FEE1E73546DFE7000038B5064D9E
:101F10000023044608462B60FEF74EFF431C02D107
:101F20002B6803B1236038BD8C000020014800F00D
:101F300011B800BF1C010020014800F00CB800BF20
:101F40001C01002051F8043C181F002BBCBF0B588B
:101F5000C0187047704770472E2E2F7379737465C1
:101F60006D2F7372632F73746D333266342D686115
:101F70006C2F73746D3332663478785F68616C5F90
:101F8000636F727465782E63000000002E2E2F732D
:101F9000797374656D2F7372632F73746D3332664A
:101FA000342D68616C2F73746D3332663478785FCA
:101FB00068616C5F7263632E630000005374616339
:101FC0006B206672616D653A0A0000002052302075
:101FD0003D2020253038580A0000000020523120D2
:101FE0003D2020253038580A0000000020523220C1
:101FF0003D2020253038580A0000000020523320B0
:102000003D2020253038580A00000000205231328F
:10201000203D20253038580A00000000204C522076
:102020003D2020253038580A000000002050432071
:102030003D2020253038580A00000000205053521F
:10204000203D20253038580A000000004653522F0A
:102050004641523A0A0000002043465352203D2098
:1020600020253038580A00002048465352203D2091
:1020700020253038580A00002044465352203D2085
:1020800020253038580A00002041465352203D2078
:1020900020253038580A0000204D4D464152203D41
:1020A00020253038580A00002042464152203D2069
:1020B00020253038580A00004D6973630A0000007B
:1020C000204C522F4558435F52455455524E3D20A7
:1020D000253038580A0000005B486172644661751B
:1020E0006C745D0A000000005B4275734661756C9C
:1020F000745D0A005B55736167654661756C745D5C
:102100000A000000000000000000000001020304BB
:102110000607080957726F6E6720706172616D65FE
:10212000746572732076616C75653A2066696C65BA
:10213000202573206F6E206C696E652025640D0A62
:1021400000232D302B2000686C4C006566674546E7
:102150004700303132333435363738394142434421
:1021600045460030313233343536373839616263B1
:04217000646566003C
:0821740058F1FF7F010000009B
:10217C007856341201FFFFFF100000009000002081
:10218C00000000000024F4001C00002000000000EF
:10219C000000000000000000000000000000000033
:1021AC000000000000000000000000000000000023
:1021BC000000000000000000000000000000000013
:1021CC000000000000000000000000000000000003
:1021DC0000000000000000000000000000000000F3
:1021EC00000000000000000000000000325476984F
:040000050800018965
:00000001FF
